:03034200A2B5223F
:03034500A2B4223D
:10023100751AFF751B03751C42751D01751E3275FC
:100241001FFF7B007A0079091200F3E50A30E218FA
:100251007408250DF50D7408250FF50F7408251187
:10026100F51174082513F513530AF3751AFF751B5D
:1002710003751C45751D01751E32751FFF7B007AC4
:1002810000790B1200F3E50C30E21874F8250DF536
:100291000D74F8250FF50F74F82511F51174F82573
:0702A10013F513530CF322C7
:03000B000202A846
:1002A800C0E0C0F0C083C082C0D075D000C000C01C
:1002B80001C002C003C004C005C006C007758CFC9D
:1002C800758A66120231D007D006D005D004D00353
:1002D800D002D001D000D0D0D082D083D0F0D0E0EE
:0102E80032E3
:03001B000201B42B
:1001B400C0E0C0F0C083C082C0D075D000C000C011
:1001C40001C002C003C004C005C006C007AF16E5E5
:1001D400082FF50DF50FC3E5089FF511F5137B0006
:1001E4007A00790D7D0112032492A07B007A0079B4
:1001F4000F7D0112032492A17B007A0079117D0105
:1002040012032492A27B007A0079137D0112032445
:1002140092A3D007D006D005D004D003D002D001D9
:0D022400D000D0D0D082D083D0F0D0E03216
:1002E900C2A0C2A1C2A2C2A3E4F515F51685080DE4
:1002F90085080F850811850813F50EF510F512F517
:1003090014758921758DA3758BA3758CFC758A6607
:0B031900D28CD28ED2A9D2ABD2AF2280
:060003001202E90080FD7D
:0600F3008B178A18891921
:1000F900AA1BA91C1200ED9200AB17AA18A9199006
:100109000001120037FF54031460171460311460A2
:1001190078240370793000030201A2EF54FC4401F2
:10012900801520007412001EC3951E4061900001C5
:1001390012003754FC44029000011200CB804F1288
:10014900001EC3951F401F90000112003754FC4444
:10015900039000011200CBE92401F9E43AFA1200F4
:100169001E44081200B9300025AB17E5192401F91E
:10017900E43518FA12001E54FC1200B944041200A6
:10018900B9AB17AA18A919801D30001E800BAB172F
:10019900AA18A919E51D020064AB17AA18A9199094
:0A01A9000001E41200CBE41200B9DB
:0101B3002229
:10032400900001ED12008612001EFFF47002D32229
:0E033400900001120037C39F50028001C322C7
:0300000002000EED
:0C000E00787FE4F6D8FD75812002000325
:10001E00BB010689828A83E0225002E722BBFE02E0
:09002E00E32289828A83E4932213
:10003700BB010CE58229F582E5833AF583E022507E
:1000470006E92582F8E622BBFE06E92582F8E222C8
:0D005700E58229F582E5833AF583E49322E2
:10006400BB010989828A83F8E028F022500327F72C
:1000740022BBFE05F8E328F3228A838982F8E493FD
:02008400282230
:10008600BB010FF8E58229F582E5833AF583E0287E
:10009600F0225009C58229F8E58226F622BBFE0920
:1000A600C58229F8E22582F222F8EA2583F583E95A
:0300B6009328226A
:1000B900BB010689828A83F0225002F722BBFE0126
:0200C900F32220
:1000CB00F8BB010DE58229F582E5833AF583E8F06B
:1000DB00225006E92582C8F622BBFE05E92582C817
:0200EB00F222FF
:0600ED008A838982E4739E
:00000001FF
