:1008FA00C0F9A4B0999282F880908883CAE1868E62
:06000300EF24FF929022A1
:06093900EF24FF92912261
:03094400A291225B
:1005F300E4F50CF508F509F50AF50BF50DF50EF51F
:100603000FF510758910758CFC758A67C28DD28CB5
:10061300D2AFD2A9752AFF752B09752C39752DFF19
:10062300752E09752F447BFF7A0079037F481207E3
:100633003E752AFF752B09752C39752DFF752E090B
:10064300752F447BFF7A007903E4FF1208CB7529E9
:10065300FF752A09752B397BFF7A00790302091686
:03000B0002066387
:10066300C0E0C083C082C0D075D000C000C005C048
:1006730006C007758CFC758A67E50C1313543FFF9E
:100683005403FEC374039EFD7401A805088002C3CE
:1006930033D8FCF4F5A0740D2EF8E6C43333335489
:1006A30080FEEF54032408F8E69008FA936EF58071
:1006B300050CE50CC394284005D200750C00D00747
:0F06C300D006D005D000D0D0D082D083D0E03286
:1003C3001205F3003000FCC200752AFF752B097576
:1003D3002C39752DFF752E09752F447BFF7A007913
:1003E300037F4812078FEF6002C2977529FF752AB2
:1003F30009752B39752CFF752D09752E447BFF7AF2
:100403000079031208E48F257529FF752A09752BD6
:10041300397BFF7A007903120916AC25E412021620
:100423007BA17AA079A0783C1201068F248E238DBC
:10043300228C21E4F525AF24AE23AD22AC21120298
:100443004AEC12020CA804A905AA06AB07AF24AE16
:1004530023AD22AC21120011EC4D4E4F601EAF2490
:10046300AE23AD22AC21E4FBFA79207841120106D8
:100473008F248E238D228C21052580BAAF24AE23B1
:10048300AD22AC2112024A8F248E238D228C21E4CB
:100493007F0F7E27FDFCAB24AA23A922A821D31218
:1004A30002D9401DAF24AE23AD22AC21E47B0AFA6E
:1004B300F9F81207E08F248E238D228C21152580D5
:1004C300CEE4F50DF50EF50FF510D3E52564809414
:1004D300835008AF25740D2FF87601E47B0AFAF9EF
:1004E300F8AF24AE23AD22AC211207E0AF038F088F
:1004F300AF24AE23AD22AC21E47B0AFAF9F812074C
:10050300E08F248E238D228C21E47B0AFAF9F8AF45
:1005130024AE23AD22AC211207E0AF038F09AF2431
:10052300AE23AD22AC21E47B0AFAF9F81207E08F7F
:10053300248E238D228C21E47B0AFAF9F8AF24AEB2
:1005430023AD22AC211207E0AF038F0AAF24AE2301
:10055300AD22AC21E47B0AFAF9F81207E08F248E6E
:10056300238D228C21E47B0AFAF9F8AF24AE23AD64
:0D05730022AC211207E0AF038F0B0203C67C
:09092E0089828A83E4FF1202F3BE
:0209370000229C
:100824008B318A32893312092E8536828535837F4E
:10083400011202F31209378533828532837F011254
:1008440002F3120937853682853583E4FF1202F3F9
:030854000209375F
:100857008B318A32893312092E8536828535831288
:1008670009328533828532837F011202F3120937F9
:0E0877008536828535837F011202F302093730
:05093F001202EFB322DB
:080580008F3B8B3C8A3D893E54
:10058800E4F545853E82853D83E4FF1202F300E5EC
:100598003B5480FF8541828540831202F300853EEB
:1005A80082853D837F011202F3120937E53B25E07E
:1005B800F53B0545E545C3940840C8853E82853D21
:1005C80083E4FF1202F3008541828540837F011294
:1005D80002F300853E82853D837F011202F31209F2
:0A05E80037AB42AA43A94412093FB1
:0105F20022E6
:0606D2008B2F8A308931F4
:1006D800E4F53889828A8312093385348285338325
:1006E8007F011202F31209378531828530837F0139
:1006F8001202F300AA36A9371202EFE433F538756F
:100708003901853182853083E4FF1202F300853197
:10071800828530837F011202F3E53825E0F538AA97
:1007280036A9371202EFE43342380539E539C39464
:050738000840CFAF38BE
:01073D002299
:1008AB008B118A12891312092E85168285158312D4
:1008BB0009328513828512837F011202F3020937F5
:10088500EF25E0FFA201E4334FFF85353F85364074
:10089500853741853842853943853A44AB32AA3399
:0608A500A93412058022B7
:08073E008F268B278A288929E8
:10074600852A34852B35852C36120824C201852747
:1007560032852833852934852A35852B36852C37ED
:10076600852D38852E39852F3AAF26120885E43334
:10077600F5307012852A34852B35852C36AB27AAA1
:0807860028A929120857AF3021
:01078E002248
:1008CB00852A3F852B40852C41852D42852E4385DE
:0908DB002F44120580E433FF22D2
:08078F008F268B278A28892997
:10079700852A34852B35852C36120824D2018527E6
:1007A70032852833852934852A35852B36852C379C
:1007B700852D38852E39852F3AAF26120885E433E3
:1007C700F5307012852A34852B35852C36AB27AA50
:0807D70028A929120857AF30D0
:0107DF0022F7
:1008E400852932852A33852B34852C35852D36850B
:0608F4002E371206D2228D
:0C090A00851A14851B15851C160208AB0D
:0C091600852934852A35852B36020857C8
:10000E000202B6E86480F8E933E83360110460F068
:10001E00ED33EC337009E8FCE9FDEAFEEBFF220458
:10002E0060DED3EB9FEA9EE99DE8C2E78CF0C2F753
:10003E0095F0400CE8CCF8E9CDF9EACEFAEBCFFB1F
:10004E0012028185D0F05804700320D5B3E80470F5
:10005E00075002B2D50202C092D5EC0460F7E4CC90
:10006E00C0E0C398F8603B94186008400DD0E0FBE8
:10007E00020298E4FBFAC9FC8028E830E406E4C9E1
:10008E00FBE4CAFCE830E305E4C9CACBFCE854073C
:10009E006010F8C3E913F9EA13FAEB13FBEC13FC47
:1000AE00D8F130F52FC3E49CFCEF9BFFEE9AFEEDEA
:1000BE0099FDD0E0FBEF4E4D4C701222DB03020295
:1000CE00BDEC2CFCEF33FFEE33FEED33FDED30E7F0
:1000DE00EB020298EF2BFFEE3AFEED39FDD0E0FB7E
:1000EE0050130BBB00030202C0ED13FDEE13FEEF27
:0800FE0013FFEC13FC02029851
:10010600EC4D6011E8497017ED33EC3304600DE4F3
:10011600FCFFFEFD22E933E8330470F80202B61252
:10012600028158046009E4CC248150062850090253
:1001360002C02840030202BDC0E0EB4A7044B98009
:1001460006D0E0FB0202ACEF4E701CBD8008EBFF50
:10015600EAFEE9FD80EBE98DF0A4FEE5F00201EF91
:10016600E9CDF9EAFEEBFFEF89F0A4FCE5F0CE89D4
:10017600F0A42EFFE435F0CD89F0A42DFEE435F091
:100186008067EF4E7005BD80D780C3EF8BF0A4ACBF
:10019600F0EE8BF0A42CFCE435F0F8EF8AF0A42CFA
:1001A600E5F038FCE433CB8DF0A42CFCE5F03BF80D
:1001B600EE8AF0A42CFCE5F038F8E433CF89F0A4FD
:1001C6002CFCE5F038CF3400CE89F0A42FFFE5F003
:1001D6003EFEE433C98DF0A42EFEE5F039CD8AF05B
:1001E600A42FFFE5F03EFEE43DFD33D0E0FB5007D3
:1001F6000BBB000F0202C0EC2CFCEF33FFEE33FE0C
:06020600ED33FD02029839
:10020C0075F020800E75F010800575F0087D007E6D
:10021C00007F003392D530D5031202CBEC33401063
:10022C00EF33FFEE33FEED33FDEC33FCD5F0ED2276
:0E023C00E5F0247EA2D513CC92E7CDCEFF22B2
:10024A00EDD2E7CD33EC3392D524814006E4FFFEAC
:10025A00FDFC22FCE4CFCECDCC24E0501174FF800B
:10026A00EDC3CC13CCCD13CDCE13CECF13CF0470A8
:07027A00F030D5DE0202CBDB
:10028100E9D2E7C933E833F892D5EDD2E7CD33ECC3
:0702910033FC5002B2D5223C
:10029800EC30E7100FBF000C0EBE00080DBD0004C7
:1002A8000BEB6014A2D5EB13FCED92E7FD2274FF73
:1002B800FCFDFEFF22E480F8A2D574FF13FC7D80CC
:0302C800E480EFE0
:03000000020922D0
:0C092200787FE4F6D8FD7581450203C320
:1007E000C2D5E830E70FB2D5E4C39BFBE49AFAE444
:1007F00099F9E498F8EC30E717B2D512081612030D
:1008000031E4C39BFBE49AFAE499F9E498F8800395
:1008100012033130D50DE4C39FFFE49EFEE49DFD3D
:04082000E49CFC2236
:0E02CB00C3E49FFFE49EFEE49DFDE49CFC2244
:1002D900EB9FF5F0EA9E42F0E99D42F0EC6480C89C
:0602E90064809845F0223C
:0602EF008A838982E4739A
:1002F50075F008758200EF2FFFEE33FECD33CDCCC0
:1003050033CCC58233C5829BED9AEC99E582984042
:100315000CF582EE9BFEED9AFDEC99FC0FD5F0D61F
:10032500E4CEFBE4CDFAE4CCF9A88222B800C1B949
:100335000059BA002DEC8BF084CFCECDFCE5F0CB87
:10034500F97818EF2FFFEE33FEED33FDEC33FCEBC0
:1003550033FB10D703994004EB99FB0FD8E5E4F97B
:10036500FA227818EF2FFFEE33FEED33FDEC33FC68
:10037500C933C910D7059BE99A4007EC9BFCE99A5C
:10038500F90FD8E0E4C9FAE4CCFB2275F010EF2FA1
:10039500FFEE33FEED33FDCC33CCC833C810D707A1
:1003A5009BEC9AE899400AED9BFDEC9AFCE899F8DC
:0E03B5000FD5F0DAE4CDFBE4CCFAE4C8F9226F
:00000001FF
