:10010300C0F9A4B0999282F880908883CAE1868E60
:1000E800E50EC394095003050E22E4F50EE50FC38F
:0B00F80094055003050F22E4F50F22D1
:03000300020006F2
:040006006308013258
:03000B0002001ED2
:10001E00C0E0C083C082C0D0758CFC758A67E508CD
:10002E00601A050AE50A70020509C394E8E5099409
:10003E000340091200E8750900750A00050DE50D6B
:10004E0030E00775A0F7E50E800575A0FBE50F9073
:0E005E00010393F580D0D0D082D083D0E03261
:03001B0002006C74
:10006C00C0E0C0D075D000C000C007758DFC758B8A
:10007C0067050CE50C7002050BC394F4E50B9401B9
:10008C004015AF107801EF08800123D8FDF510F56D
:10009C0090750B00750C00D007D000D0D0D0E0329A
:1000AC00758911758CFC758A67C28DD28C758DFC27
:1000BC00758B67C28FD28ED2ABD2A9D288D2A8D27E
:1000CC00AF7510FE851090E4F50BF50CF509F50AEB
:0C00DC00F50D750801F50EF50F0080FD14
:0300000002000EED
:0C000E00787FE4F6D8FD7581100200AC8C
:00000001FF
