:10105F00C0F9A4B0999282F880908883CAE1868EF5
:100FB900ED4C601C90000D1204C145F090000D60CD
:100FC9000974FFF5F01205318028E475F003801FDC
:100FD90090000DE475F00112053190000D1204C165
:100FE900C39404E5F09400400990000DE4F5F01273
:100FF900059D90000D1204C1FF7401A80708800225
:08100900C333D8FCF4F590227A
:060D23008B398A3A893B7E
:100D290012042714602214606724026003020E3241
:100D3900AB39E53B2417F9E4353AFA120496640114
:100D4900FFE5F08FF002057EAB39AA3AA93B900086
:100D590019E412047490001AE412047490001BE45C
:100D690012047490001CE4120474E92417F9E43A9B
:100D7900FA120496FFE5F054BF8FF012057EAB39E5
:100D8900AA3AA93B900009E4F5F012059D020E323A
:100D9900E4FDFCAB39E53B2405F9E4353AFAE92DE4
:100DA900F9EA3CFA120427F53CAA3AA93B90000D4E
:100DB9001204C1AEF07802C333CE33CED8F9FFE9BD
:100DC900241DF9E43AFAE92FF9EA3EFAE92DF9EA9C
:100DD9003CFA120427FFAB39E53B2405F9E4353A1F
:100DE900FAE92DF9EA3CFAEF120462AB39AA3AA9F9
:100DF9003B90000D1204C1AEF07802C333CE33CE5E
:100E0900D8F9FFE9241DF9E43AFAE92FF9EA3EFA9B
:100E1900E92DF9EA3CFAE53C1204620DBD00010C2A
:100E2900ED64044C6003020D9CAB39AA3AA93BE47A
:030E39001204623E
:010E3C002293
:100ED4008B398A3A893B120427706B04120462AB83
:100EE40039E53B2417F9E4353AFA12049654FEFF27
:100EF400E5F08FF012057EAB39AA3AA93B90000BBE
:100F0400E4F5F012059D90001AE412047490001B9D
:100F1400E412047490001CE412047490001974FF29
:100F2400120474E92417F9E43AFA120496FFE5F07E
:100F340044408FF012057EAB39AA3AA93B900009D0
:070F4400E4F5F012059D2207
:101011009000171204C1E5F030E52612042764029E
:10102100601F90000574091204749000067409127F
:101031000474900007740912047490000874098004
:1010410019900005E4120474900006E412047490EF
:0E1051000007E4120474900008E412047422F4
:060233008B398A3A893B79
:1002390012042724FE606B24026003020426AB39F2
:10024900E53B2417F9E4353AFA120496FFE5F06420
:10025900208FF012057EAB39AA3AA93B9000197498
:100269000112047490001A740112047490001B7432
:100279000112047490001C7401120474E92417F922
:10028900E43AFA120496FFE5F044408FF012057E35
:10029900AB39AA3AA93B900009E4F5F012059D0291
:1002A9001011E4FDFCAB39E53B2405F9E4353AFAD4
:1002B900E92DF9EA3CFA120427F53EAA3AA93B903E
:1002C900000D1204C1AEF07802C333CE33CED8F993
:1002D900FFE9241DF9E43AFAE92FF9EA3EFAE92D92
:1002E900F9EA3CFA120427FFAB39E53B2405F9E4A6
:1002F900353AFAE92DF9EA3CFAEF120462AB39AA68
:100309003AA93B90000D1204C1AEF07802C333CE76
:1003190033CED8F9FFE9241DF9E43AFAE92FF9EACD
:100329003EFAE92DF9EA3CFAE53E1204620DBD00F8
:10033900010CED64044C60030202AEE4FCFDE4F53B
:100349003CF53DAB39E53B241DF9E4353AFAEDAE10
:10035900047802C333CE33CED8F929F9EA3EFAE953
:10036900253DF9EA353CFAE4120462053DE53D70A4
:1003790002053C6404453C70CA0DBD00010CED64E6
:10038900044C70BAE4FCFDAB39E53B2405F9E435CE
:100399003AFAE92DF9EA3CFA120427F53EAA3AA9F4
:1003A9003B90000D1204C1AEF07802C333CE33CEB8
:1003B900D8F9FFE9241DF9E43AFAE92FF9EA3EFAF6
:1003C900E92DF9EA3CFA120427FFAB39E53B24058C
:1003D900F9E4353AFAE92DF9EA3CFAEF120462AB8D
:1003E90039AA3AA93B90000D1204C1AEF07802C3B4
:1003F90033CE33CED8F9FFE9241DF9E43AFAE92FCF
:10040900F9EA3EFAE92DF9EA3CFAE53E1204620DF1
:0D041900BD00010CED64044C600302039073
:0104260022B3
:060003008B398A3A893BAB
:100009001204271460721470030200D924026003D9
:10001900020232E4F53CF53DAB39E53B2405F9E450
:10002900353AFAE9253DF9EA353CFA120427FDAAE1
:100039003AA93B90000D1204C1AEF07802C333CE49
:1000490033CED8F9FFE9241DF9E43AFAE92FF9EAA0
:100059003EFAE9253DF9EA353CFAED120462053D1F
:10006900E53D7002053C6404453C70ACAB39AA3AE5
:10007900A93BE4FDFC020FB9AB39AA3AA93B9000B0
:100089000B1204C1FFE92405F9E43AFAE92FF9EA68
:1000990035F0FA7401120440AA3AA93B90000B12F8
:1000A90004C1FFAEF0E92405F9E43AFAE92FF9EAC7
:1000B9003EFA120427D394095003020232E53B2485
:1000C90005F9E4353AFAE92FF9EA3EFAE40204625D
:1000D900E4F53CF53DAB39E53B2405F9E4353AFA5D
:1000E900E9253DF9EA353CFA120427F53EAA3AA971
:1000F9003B90000D1204C1AEF07802C333CE33CE6B
:10010900D8F9FFE9241DF9E43AFAE92FF9EA3EFAA8
:10011900E9253DF9EA353CFA120427FFAB39E53BFD
:100129002405F9E4353AFAE9253DF9EA353CFAEFCF
:10013900120462AB39AA3AA93B90000D1204C1AE70
:10014900F07802C333CE33CED8F9FFE9241DF9E4A0
:100159003AFAE92FF9EA3EFAE9253DF9EA353CFA96
:10016900E53E120462053DE53D7002053C64044527
:100179003C60030200DEAB39AA3AA93B7D017C0051
:10018900120FB9E4F53CF53DAB39E53B2405F9E43B
:10019900353AFAE9253DF9EA353CFA120427F53EE4
:1001A900AA3AA93B90000D1204C1AEF07802C333FC
:1001B900CE33CED8F9FFE9241DF9E43AFAE92FF94B
:1001C900EA3EFAE9253DF9EA353CFA120427FFAB84
:1001D90039E53B2405F9E4353AFAE9253DF9EA35EB
:1001E9003CFAEF120462AB39AA3AA93B90000D120E
:1001F90004C1AEF07802C333CE33CED8F9FFE92477
:100209001DF9E43AFAE92FF9EA3EFAE9253DF9EA56
:10021900353CFAE53E120462053DE53D7002053CB8
:090229006404453C6003020191EC
:0102320022A9
:060AAF008B398A3A893BF5
:100AB500120427147003020B81046003020BF2ABCE
:100AC50039E53B2417F9E4353AFA12049654FEFF4A
:100AD500E5F08FF012057EAB39AA3AA93B740212F4
:100AE5000462E4FCFDAB39E53B2405F9E4353AFA4B
:100AF500E92DF9EA3CFA120427F53CAA3AA93B90FC
:100B0500000D1204C1AEF07802C333CE33CED8F94E
:100B1500FFE9241DF9E43AFAE92FF9EA3EFAE92D4D
:100B2500F9EA3CFA120427FFAB39E53B2405F9E461
:100B3500353AFAE92DF9EA3CFAEF120462AB39AA23
:100B45003AA93B90000D1204C1AEF07802C333CE32
:100B550033CED8F9FFE9241DF9E43AFAE92FF9EA89
:100B65003EFAE92DF9EA3CFAE53C1204620DBD00B6
:100B7500010CED64044C6003020AEA22AB39AA3A7F
:100B8500A93B90000BE475F00112053190000B12A2
:100B950004C1C39404E5F09400400FAB39AA3AA907
:100BA5003B90000BE4F5F012059DE4FCFDAB39E547
:100BB5003B2419F9E4353AFAE92DF9EA3CFAE4124D
:100BC50004620DBD00010CED64044C70E0AB39AA64
:100BD5003AA93B90000B1204C1FFE92419F9E43A44
:0D0BE500FAE92FF9EA35F0FA74FF12046204
:010BF20022E0
:0605E6008B398A3A893BC3
:1005EC001204271460161460682402600302079832
:1005FC00AB39AA3AA93BE4FDFC020FB9AB39AA3AD4
:10060C00A93B90000B1204C1FFAEF0E92405F9E4FC
:10061C003AFAE92FF9EA3EFA1204276014E53B2472
:10062C0005F9E4353AFAE92FF9EA3EFA74FF0204C7
:10063C0040AB39AA3AA93B90000B1204C1FFE92444
:10064C0005F9E43AFAE92FF9EA35F0FA74090204EB
:10065C0062E4FDFCAB39E53B2405F9E4353AFAE9F3
:10066C002DF9EA3CFA120427F53CAA3AA93B900072
:10067C000D1204C1AEF07802C333CE33CED8F9FFDD
:10068C00E9241DF9E43AFAE92FF9EA3EFAE92DF9E1
:10069C00EA3CFA120427FFAB39E53B2405F9E435B3
:1006AC003AFAE92DF9EA3CFAEF120462AB39AA3AAC
:1006BC00A93B90000D1204C1AEF07802C333CE33C7
:1006CC00CED8F9FFE9241DF9E43AFAE92FF9EA3E0C
:1006DC00FAE92DF9EA3CFAE53C1204620DBD000181
:1006EC000CED64044C6003020660AB39AA3AA93BDA
:1006FC00E4FDFC120FB9AB39E53B2405F9E4353ABE
:10070C00FAE92DF9EA3CFA120427F53CAA3AA93B7E
:10071C0090000D1204C1AEF07802C333CE33CED8A4
:10072C00F9FFE9241DF9E43AFAE92FF9EA3EFAE96E
:10073C002DF9EA3CFA120427FFAB39E53B2405F905
:10074C00E4353AFAE92DF9EA3CFAEF120462AB39D6
:10075C00AA3AA93B90000D1204C1AEF07802C33343
:10076C00CE33CED8F9FFE9241DF9E43AFAE92FF992
:10077C00EA3EFAE92DF9EA3CFAE53C1204620DBDB9
:0C078C0000010CED64044C600302070245
:01079800223E
:060F4B008B398A3A893B54
:100F51001204276401706090000B1204C145F090E7
:100F6100000B600974FFF5F01205318007E475F09C
:100F71000312059DE4FFFEAB39E53B2419F9E43585
:100F81003AFAE92FF9EA3EFAE41204620FBF0001CE
:100F91000EEF64044E70E0AB39AA3AA93B90000B06
:100FA1001204C1FFE92419F9E43AFAE92FF9EA3503
:070FB100F0FA74FF12046264
:010FB8002216
:060BF3008B398A3A893BB0
:100BF9009000091204C1FFAEF054036003020D22F4
:100C0900C3EF94F4EE94014066E92417F9E43AFA43
:100C1900120496FFE5F064408FF012057EAB39AA05
:100C29003AA93B9000171204C1E5F020E632E4FF2F
:100C3900FEAB39E53B2419F9E4353AFAE92FF9EA2B
:100C49003EFA120427FDD39400400AED94FF5005A3
:100C590074FF1204400FBF00010EEF64044E70D1FF
:100C6900AB39AA3AA93B900009E4F5F012059DAB0E
:100C790039AA3AA93B9000171204C1E5F030E61FE2
:100C89009000031204C1FFE92419F9E43AFAE92FA3
:100C9900F9EA35F0FA120427600575A00F804CAB0C
:100CA90039AA3AA93B9000031204C1FFAEF0FD74C2
:100CB90008A805088002C313D8FCF4F5A0E92405A7
:100CC900F9E43AFAE92FF9EA3EFA12042790105F9B
:100CD90093F580AB39AA3AA93B9000031204C16489
:100CE9000145F07004C2878002D287AB39AA3AA9BC
:100CF9003B900003E475F0011205319000031204E2
:100D0900C1D39403E5F09400400FAB39AA3AA93B4B
:090D1900900003E4F5F012059DC1
:010D220022AE
:060E3D008B398A3A893B63
:100E43009000171204C120E003020ED3900001E4C6
:100E530075F0021205319000011204C1646445F07B
:100E6300706EFFFEAB39AA3AA93B9000171204C17A
:100E7300E5F030E51AE92405F9E43AFAE92FF9EA4D
:100E83003EFA120427600474FF801F74098021ABAB
:100E930039E53B2405F9E4353AFAE92FF9EA3EFA54
:100EA300120427C39409500774011204408012E40A
:100EB3001204620FBF00010EC3EF9404EE940040CE
:100EC300A3AB39AA3AA93B900001E4F5F012059DC2
:010ED30022FC
:060941007B007A0079083A
:100947008B398A3A893BE5B05D6003020A2C900037
:10095700171204C1FFE53D55F0FEE53E5F4E60030B
:10096700020AAEAB49AA4AA94B75F0011204F9ABCA
:1009770039E53B2417F9E4353AFA120496FFE541C5
:1009870045F0FEE5424FFFEE8FF012057EAB39AA28
:100997003AA93B9000171204C1FFE53F55F0FEE569
:1009A700405F4E604DAB49AA4AA94B120496C394C7
:1009B7005EE5F094015003020AAEAB39E53B24171C
:1009C700F9E4353AFA120496FFE53D45F0FEE53EB7
:1009D7004FFFEE8FF012057EE54745484546700309
:1009E700020AAEAB39AA3AA93B85488285478302FA
:1009F70005CEAB49AA4AA94B120496C3940AE5F05F
:100A070094005003020AAEAB39E53B2417F9E435ED
:100A17003AFA120496FFE53F45F0FEE5404FFFEE38
:100A27008FF0020AABAB39AA3AA93B900017120420
:100A3700C1FFAEF0E5415EFCE5425F4C6069E53F12
:100A47005EFEE5405F4E60239000171204C1FFE58C
:100A57003D55F0FEE53E5F4E7011E5444545454383
:100A670060098545828544831205CEAB39E53B2471
:100A770017F9E4353AFA120496FFE53D453FFCE5E0
:100A87003E4540FDE5414CFCE5424DF4FDECF45597
:100A9700F0FEEF5DFFEE8FF012057EAB49AA4AA983
:080AA7004BE4F5F012057E227C
:10079900E4F537F538F508F50DF50EF50FF510F513
:1007A90021F522F523F524F509F50AF50BF50CF5E4
:1007B9001FF520F511F512F515F516AF1604A80762
:1007C900088002C333D8FCF4F590E4F535F536E436
:1007D900FFFEE53625E025E024252FF8E4F60FBFD6
:1007E90000010EEF64044E70E90536E53670020526
:1007F900356404453570D8758901758CF8758ACCCE
:10080900C28DD28C308DFDC28D7535007536D505FA
:1008190038E53870020537640A4537700FF537F542
:100829003874082536F536E43535F535AF8AEF25C0
:1008390036F536E43535F535E536F58AE53524F806
:10084900258CF58C74022512F512E43511F5117B0E
:10085900007A007908120BF3753D00753E08753F63
:10086900007540047541007542027543FF75440DDA
:100879007545237546FF75470E7548D4754900754A
:100889004A00754B177D20120941753D00753E40A0
:10089900753F007540207541007542107543FF751D
:1008A90044107545117546FF7547027548337549FA
:1008B90000754A00754B197D10120941753D027585
:1008C9003E00753F017540007541007542807543D2
:1008D900FF7544007545037546FF75470A7548AFAE
:1008E900754900754A00754B1B7B007A0079087DB4
:1008F90008120947753D10753E00753F087540009F
:100909007541047542007543FF7544057545E675E3
:1009190046FF75470F75484B754900754A00754B79
:100929001D7B007A0079087D041209477B007A0053
:080939007908120E3D02080DC1
:0300000002106F7C
:0C106F00787FE4F6D8FD75814B020799EC
:10042700BB010689828A83E0225002E722BBFE02D3
:09043700E32289828A83E4932206
:10044000BB010989828A83F8E028F022500327F74C
:1004500022BBFE05F8E328F3228A838982F8E4931D
:02046000282250
:10046200BB010689828A83F0225002F722BBFE0179
:02047200F32273
:10047400F8BB010DE58229F582E5833AF583E8F0BE
:10048400225006E92582C8F622BBFE05E92582C86A
:02049400F22252
:10049600BB010A89828A83E0F5F0A3E02250068731
:1004A600F009E71922BBFE07E3F5F009E3192289F3
:0B04B600828A83E493F5F07401932226
:1004C100BB0110E58229F582E5833AF583E0F5F079
:1004D100A3E0225009E92582F886F008E622BBFE56
:1004E1000AE92582F8E2F5F008E222E5832AF5839C
:0804F100E993F5F0A3E9932261
:1004F900BB010789828A830205D0500B09C5F02701
:10050900F7C5F01937F722BBFE0D09F8E325F0F31B
:10051900C5F019E338F322F889828A837401932597
:08052900F0C5F0F8E49338225C
:10053100BB010DC58229C582C5833AC5830205D099
:100541005011C58229F808E5F026F618F5F0E58284
:1005510036F622BBFE11C58229F808E225F0F5F036
:10056100F218E23582F222F8E58229F582E5832A42
:0D057100F58374019325F0F5F0E493382232
:10057E00BB010A89828A83F0E5F0A3F0225006F7C8
:0F058E0009A7F01922BBFE06F3E5F009F31922C5
:10059D00F8BB0111E58229F582E5833AF583E8F090
:1005AD00E5F0A3F0225009E92582C8F608A6F0224D
:0D05BD00BBFE09E92582C8F2E5F008F22234
:0605CA008A838982E473BC
:1005D000C5F0F8A3E028F0C5F0F8E58215827002B6
:0605E0001583E038F02253
:00000001FF
