:1000C400C0F9A4B0999282F880908883CAE1868EA0
:0A00E0008FA0ED9000C493F580227C
:10000300E4F50EF50FF510F511F508F509F50AF508
:100013000B758901758CFC758A67C28DD28C308D06
:10002300FDC28D7A007B6F050BE50B7002050A6438
:100033000A450A700BF50AF50B74042BFBE433FA3B
:10004300AF8AEF2BFBE43AFAEBF58AAF02EF24FC1D
:10005300258CF58CE50D5403702EAE097408A806A3
:10006300088002C313D8FCF4FF740E2EF8E6FD12C9
:1000730000E00509E50970020508D39403E5089437
:10008300004005E4F508F509050DE50D7002050CC2
:1000930064E87004E50C64037084FAFB740E2BF8B7
:1000A300E6C394095003068010E4F60BBB00010A73
:1000B300C3EB9404EA940040E3E4F50CF50D02006D
:0100C300211B
:030000000200D427
:0C00D400787FE4F6D8FD7581110200036E
:00000001FF
