:10011900C0F9A4B0999282F880908883CAE1868E4A
:0300230002001ABE
:06001A00309902C2993288
:1000AA00E4F508F509F50AF50BF50DF50C75892146
:1000BA00758DF4758BF4758CFC758A67D28CD28E2B
:0D00CA00C29FD29EC29CC299D2ACD2AF227E
:1000D700AF0D7401A807088002C333D8FCF4F5A05C
:1000E700C37403950D2408F8E690011993F580056C
:0C00F7000DE50DD394034003E4F50D2249
:0D0129007FE87E03EF1F70011EEF4E70F7A0
:0101360022A6
:10007000E4FDFCEF601B75F00A8474082DF8A6F00F
:10008000EF75F00A84FF0DBD00010CED64044C70A7
:10009000E2C3ED9404EC64809480500D74082DF854
:0900A000E4F60DBD00010C80E83E
:0100A9002234
:10000300EF5430C4540FFEEF54C01313543F4EFE4D
:06001300FF1200708E993F
:0100190022C4
:100026007590BFAB90EB64BF6018120129AB90EBE3
:1000360064BF602EE50C6B6029AF031200038B0CC6
:10004600802075907FAB90EB647F601A120129AB1C
:1000560090EB647F600CE50C6B6007AF0312000346
:090066008B0C7590FF22E4F50CEF
:01006F00226E
:100103001200AA308DFDC28D758CFC758A671200B2
:06011300261200D780ED6A
:03000000020137C3
:0C013700787FE4F6D8FD75810D0201030D
:00000001FF
