:10050700C0F9A4B0999282F880908883CAE1868E58
:0905230089828A83E4FF12040AB4
:02052C000022AB
:10044A008B4C8A4D894E1205238551828550837FB4
:10045A000112040A12052C854E82854D837F0112F2
:10046A00040A12052C855182855083E4FF12040A7E
:03047A0002052C4C
:10047D008B4C8A4D894E12052385518285508312EE
:10048D000527854E82854D837F0112040A12052CA6
:0E049D008551828550837F0112040A02052CCE
:05054400120406B322C1
:0802D8008F568B578A58895993
:1002E000E4F560855982855883E4FF12040A00E52D
:1002F000565480FF855C82855B8312040A00855911
:10030000828558837F0112040A12052CE55625E0E8
:10031000F5560560E560C3940840C8855982855844
:1003200083E4FF12040A00855C82855B837F0112EF
:10033000040A008559828558837F0112040A120538
:0A0340002CAB5DAA5EA95F12054414
:01034A002290
:06034B008B4C8A4D894E27
:10035100E4F55589828A8312052885518285508367
:100361007F0112040A12052C854E82854D837F017F
:1003710012040A00AA53A954120406E433F5557570
:100381005601854E82854D83E4FF12040A00854E95
:1003910082854D837F0112040AE55525E0F555AAB2
:1003A10053A954120406E43342550556E556C39445
:0503B1000840CFAF552C
:0103B6002224
:1004D5008B4C8A4D894E1205238551828550831296
:1004E5000527854E82854D837F0112040A02052C5E
:1004AB00EF540725E044A0FFA201E4334FFF855032
:1004BB005A85515B85525C85535D85545E85555FCE
:0A04CB00AB4DAA4EA94F1202D82231
:06000300EF24FF9293229E
:06053800EF24FF92922265
:03054900A2932258
:0A0148008F228D238B248A2589263F
:10015200E4F529754FFF7550007551037BFF7A0551
:10016200793812044AC201754DFF754E05754F3834
:100172007550FF7551007552037553FF755405751F
:100182005549AF221204AB40067529010202267FAF
:1001920000755AFF755B00755C03755DFF755E0542
:1001A200755F497BFF7A0579381202D840057529B7
:1001B200028071E523FF755AFF755B00755C03755C
:1001C2005DFF755E05755F497BFF7A05793812021E
:1001D200D84005752903804CE4F52AF52BC3E52B9D
:1001E2009528E52A9527503CAB24AA25A926852BDC
:1001F20082852A831203B7FF755AFF755B00755C0F
:1002020003755DFF755E05755F497BFF7A05793879
:100212001202D84005752904800A052BE52B7002CD
:10022200052A80B9754FFF7550007551037BFF7A1F
:0802320005793812047DAF29A3
:01023A0022A1
:1004F5008B217B007A00792175270075280112016F
:0205050048228A
:0A000E008F428D438B448A458946DA
:10001800E4F54B754FFF7550007551037BFF7A056A
:10002800793812044AC201754DFF754E05754F386F
:100038007550FF7551007552037553FF755405755A
:100048005549AF421204AB40030200D97F00755AEC
:10005800FF755B00755C03755DFF755E05755F492F
:100068007BFF7A0579381202D84008C295754B0291
:10007800020133E543FF755AFF755B00755C037534
:100088005DFF755E05755F497BFF7A057938120259
:10009800D84008C294754B03020133754FFF755061
:1000A800007551037BFF7A05793812044AD201752D
:1000B8004DFF754E05754F387550FF7551007552D7
:1000C800037553FF755405755549AF421204AB408B
:1000D80005754B018055E4F549F54A754FFF755094
:1000E800007551037552FF7553057554497BFF7AA6
:1000F80005793812034BAB44AA45A946854A82853F
:100108004983EF1203E4054AE54A70020549C3959D
:1001180048E54995475014754FFF755000755103D0
:100128007BFF7A0579381204D580B0754FFF75507A
:0F013800007551037BFF7A05793812047DAF4BB8
:010147002295
:0A052E0075470075480112000E2207
:10040C007B007A007941E4FD7F0112052EEF700428
:10041C00C2968002C295E54175F00A8485F008E524
:10042C004175F00A84F509E4F50AF50B7589017537
:0D043C008CFC758A67C28DD28CD2A9D2AF1C
:010449002290
:03000B0002023BB3
:10023B00C0E0C0F0C083C082C0D075D000C000C089
:10024B0001C002C003C004C005C006C007758CFC0A
:10025B00758A67E50B30E00775A0F7E50880057533
:10026B00A0FBE50990050793F580050BE50B7002E4
:10027B00050AC39488E50A94134037750A00750B79
:10028B00000508E508D3940940050509750800E544
:10029B0009D394094003750900E50975F00AA425F3
:1002AB0008FBE4FD7F011204F5EF7004C297800296
:1002BB00D297D007D006D005D004D003D002D001FE
:0D02CB00D000D0D0D082D083D0F0D0E0326F
:06053E0012040C0080FD18
:03000000020517DF
:0C051700787FE4F6D8FD75816002053E97
:1003B700BB010CE58229F582E5833AF583E02250FB
:1003C70006E92582F8E622BBFE06E92582F8E22245
:0D03D700E58229F582E5833AF583E493225F
:1003E400F8BB010DE58229F582E5833AF583E8F04F
:1003F400225006E92582C8F622BBFE05E92582C8FB
:02040400F222E2
:060406008A838982E47381
:00000001FF
