:1000DF00C0F9A4B0999282F880908883CAE1868E85
:1000B600E4F50CF508F509F50AF50B758921758D3A
:1000C600FA758BFA758CFC758A67C29FD29ED29C94
:0900D600D2ACD2AFD28ED28C2242
:10002600E4FDFCEF601B75F00A8474082DF8A6F059
:10003600EF75F00A84FF0DBD00010CED64044C70F1
:10004600E2C3ED9404EC64809480500D74082DF89E
:09005600E4F60DBD00010C80E888
:01005F00227E
:0300230002008C4C
:10008C00C0E0C0F0C0D075D000C000C004C005C036
:01009C00075C
:0A009D00309807AF99C298120026B0
:0F00A700D007D005D004D000D0D0D0F0D0E032B8
:10006000AF0C7401A807088002C333D8FCF4F5A0D4
:10007000C37403950C2408F8E69000DF93F580051F
:0C0080000CE50CD394034003E4F50C22C3
:100003001200B6308DFDC28D758CFC758A671200A7
:030013006080F01A
:03000000020016E5
:0C001600787FE4F6D8FD75810C02000331
:00000001FF
